:02000000922844
:100008000B1D1F28831203130608A3008601000096
:1000180000000000A03086000000000000008601FB
:1000280000000000000050308600000000000000C2
:10003800230886000B11831203130C1F4028200885
:10004800C53EF00000300318013EF1007008A4001E
:100058007108A5007F208A110A12A3001F1F3728E4
:10006800CF30A30537289F1F3C283F30A3053C28E5
:100078008101230886000C138B1C67280618512859
:10008800E0309500A101A201861C4E28A00A073085
:10009800A0055128A0030730A0052008C53EF000A0
:1000A80000300318013EF1007008A4007108A50093
:1000B8007F208A110A12A3008601000000000000B8
:1000C800230886008B108C1C7E288030003AF000B4
:1000D80080307002031D72282108A03C031877287D
:1000E800703095007D28A20A2208003A031D7D2859
:0600F800A10A8C100900B2
:0E00FE008312031325088A00240882000800DC
:10010C007F208A110A128000840AA40A0319A50A06
:08011C00F003031D8628080012
:1001240083120313A001A101A201A30186010330DC
:10013400831686008B0182308100333083129F0046
:10014400423083168C00FF309200E0308312950019
:100154003C30970004309200F0308B002008C53EFC
:10016400F00000300318013EF1007008A40071088B
:10017400A5007F208A110A12F0007008A3007008FD
:060184008600C328C42818
:10018A008034A034203460344034503410349034F5
:02400E0062212D
:00000001FF
